{
  "address": "0xC5E6040DDE57F2054727E7E91eD0b4660D30de08",
  "abi": [
    {
      "inputs": [
        {
          "internalType": "address",
          "name": "datafeedadd",
          "type": "address"
        }
      ],
      "stateMutability": "nonpayable",
      "type": "constructor"
    },
    {
      "stateMutability": "payable",
      "type": "fallback"
    },
    {
      "inputs": [],
      "name": "datafeed",
      "outputs": [
        {
          "internalType": "contract AggregatorV3Interface",
          "name": "",
          "type": "address"
        }
      ],
      "stateMutability": "view",
      "type": "function"
    },
    {
      "inputs": [],
      "name": "fund",
      "outputs": [],
      "stateMutability": "payable",
      "type": "function"
    },
    {
      "inputs": [
        {
          "internalType": "uint256",
          "name": "",
          "type": "uint256"
        }
      ],
      "name": "funders",
      "outputs": [
        {
          "internalType": "address",
          "name": "",
          "type": "address"
        }
      ],
      "stateMutability": "view",
      "type": "function"
    },
    {
      "inputs": [
        {
          "internalType": "uint256",
          "name": "ethAmount",
          "type": "uint256"
        }
      ],
      "name": "getconversion",
      "outputs": [
        {
          "internalType": "uint256",
          "name": "",
          "type": "uint256"
        }
      ],
      "stateMutability": "view",
      "type": "function"
    },
    {
      "inputs": [],
      "name": "getprice",
      "outputs": [
        {
          "internalType": "uint256",
          "name": "",
          "type": "uint256"
        }
      ],
      "stateMutability": "view",
      "type": "function"
    },
    {
      "inputs": [],
      "name": "getversion",
      "outputs": [
        {
          "internalType": "uint256",
          "name": "",
          "type": "uint256"
        }
      ],
      "stateMutability": "view",
      "type": "function"
    },
    {
      "inputs": [],
      "name": "minnal",
      "outputs": [
        {
          "internalType": "uint256",
          "name": "",
          "type": "uint256"
        }
      ],
      "stateMutability": "view",
      "type": "function"
    },
    {
      "stateMutability": "payable",
      "type": "receive"
    }
  ],
  "transactionHash": "0x19f3039cb9cf7bd4781cf5c73ae749bb7ab2236b81ad49a9e81ec738d3e4ea62",
  "args": [
    "0x1b44F3514812d835EB1BDB0acB33d3fA3351Ee43"
  ],
  "numDeployments": 1,
  "solcInputHash": "71b1c57b2afbde7388ca849e73f38b5b",
  "bytecode": "0x6080604052670de0b6b3a764000060005534801561001c57600080fd5b50604051610a25380380610a25833981810160405281019061003e91906100e8565b80600260006101000a81548173ffffffffffffffffffffffffffffffffffffffff021916908373ffffffffffffffffffffffffffffffffffffffff16021790555050610115565b600080fd5b600073ffffffffffffffffffffffffffffffffffffffff82169050919050565b60006100b58261008a565b9050919050565b6100c5816100aa565b81146100d057600080fd5b50565b6000815190506100e2816100bc565b92915050565b6000602082840312156100fe576100fd610085565b5b600061010c848285016100d3565b91505092915050565b610901806101246000396000f3fe6080604052600436106100745760003560e01c806368e0de561161004e57806368e0de561461010e578063b00d4f3114610139578063b60d428814610176578063dc0d3dff1461018057610083565b80630fcb59841461008d5780632dc47153146100b857806352170c78146100e357610083565b36610083576100816101bd565b005b61008b6101bd565b005b34801561009957600080fd5b506100a261026f565b6040516100af9190610481565b60405180910390f35b3480156100c457600080fd5b506100cd610326565b6040516100da919061051b565b60405180910390f35b3480156100ef57600080fd5b506100f861034c565b6040516101059190610481565b60405180910390f35b34801561011a57600080fd5b506101236103e9565b6040516101309190610481565b60405180910390f35b34801561014557600080fd5b50610160600480360381019061015b9190610567565b6103ef565b60405161016d9190610481565b60405180910390f35b61017e6101bd565b005b34801561018c57600080fd5b506101a760048036038101906101a29190610567565b610429565b6040516101b491906105b5565b60405180910390f35b6000546101c9346103ef565b101561020a576040517f08c379a00000000000000000000000000000000000000000000000000000000081526004016102019061062d565b60405180910390fd5b6001339080600181540180825580915050600190039060005260206000200160009091909190916101000a81548173ffffffffffffffffffffffffffffffffffffffff021916908373ffffffffffffffffffffffffffffffffffffffff160217905550565b600080600260009054906101000a900473ffffffffffffffffffffffffffffffffffffffff16905060008173ffffffffffffffffffffffffffffffffffffffff1663feaf968c6040518163ffffffff1660e01b815260040160a060405180830381865afa1580156102e4573d6000803e3d6000fd5b505050506040513d601f19601f8201168201806040525081019061030891906106da565b5050509150506402540be4008161031f9190610784565b9250505090565b600260009054906101000a900473ffffffffffffffffffffffffffffffffffffffff1681565b600080600260009054906101000a900473ffffffffffffffffffffffffffffffffffffffff1690508073ffffffffffffffffffffffffffffffffffffffff166354fd4d506040518163ffffffff1660e01b8152600401602060405180830381865afa1580156103bf573d6000803e3d6000fd5b505050506040513d601f19601f820116820180604052508101906103e391906107fc565b91505090565b60005481565b6000806103fa61026f565b90506000670de0b6b3a764000084836104139190610829565b61041d919061089a565b90508092505050919050565b6001818154811061043957600080fd5b906000526020600020016000915054906101000a900473ffffffffffffffffffffffffffffffffffffffff1681565b6000819050919050565b61047b81610468565b82525050565b60006020820190506104966000830184610472565b92915050565b600073ffffffffffffffffffffffffffffffffffffffff82169050919050565b6000819050919050565b60006104e16104dc6104d78461049c565b6104bc565b61049c565b9050919050565b60006104f3826104c6565b9050919050565b6000610505826104e8565b9050919050565b610515816104fa565b82525050565b6000602082019050610530600083018461050c565b92915050565b600080fd5b61054481610468565b811461054f57600080fd5b50565b6000813590506105618161053b565b92915050565b60006020828403121561057d5761057c610536565b5b600061058b84828501610552565b91505092915050565b600061059f8261049c565b9050919050565b6105af81610594565b82525050565b60006020820190506105ca60008301846105a6565b92915050565b600082825260208201905092915050565b7f73656e64206c6173742031204554480000000000000000000000000000000000600082015250565b6000610617600f836105d0565b9150610622826105e1565b602082019050919050565b600060208201905081810360008301526106468161060a565b9050919050565b600069ffffffffffffffffffff82169050919050565b61066c8161064d565b811461067757600080fd5b50565b60008151905061068981610663565b92915050565b6000819050919050565b6106a28161068f565b81146106ad57600080fd5b50565b6000815190506106bf81610699565b92915050565b6000815190506106d48161053b565b92915050565b600080600080600060a086880312156106f6576106f5610536565b5b60006107048882890161067a565b9550506020610715888289016106b0565b9450506040610726888289016106c5565b9350506060610737888289016106c5565b92505060806107488882890161067a565b9150509295509295909350565b7f4e487b7100000000000000000000000000000000000000000000000000000000600052601160045260246000fd5b600061078f8261068f565b915061079a8361068f565b92508282026107a88161068f565b91507f800000000000000000000000000000000000000000000000000000000000000084146000841216156107e0576107df610755565b5b82820584148315176107f5576107f4610755565b5b5092915050565b60006020828403121561081257610811610536565b5b6000610820848285016106c5565b91505092915050565b600061083482610468565b915061083f83610468565b925082820261084d81610468565b9150828204841483151761086457610863610755565b5b5092915050565b7f4e487b7100000000000000000000000000000000000000000000000000000000600052601260045260246000fd5b60006108a582610468565b91506108b083610468565b9250826108c0576108bf61086b565b5b82820490509291505056fea2646970667358221220c08f8ef772a114f7d126345fdc11e3d041bcc97ab832b49d95ae6299f8967c7464736f6c634300081c0033",
  "devdoc": {
    "kind": "dev",
    "methods": {},
    "version": 1
  },
  "userdoc": {
    "kind": "user",
    "methods": {},
    "version": 1
  },
  "storageLayout": {
    "storage": [
      {
        "astId": 52,
        "contract": "contracts/fundme.sol:fundme",
        "label": "minnal",
        "offset": 0,
        "slot": "0",
        "type": "t_uint256"
      },
      {
        "astId": 55,
        "contract": "contracts/fundme.sol:fundme",
        "label": "funders",
        "offset": 0,
        "slot": "1",
        "type": "t_array(t_address)dyn_storage"
      },
      {
        "astId": 58,
        "contract": "contracts/fundme.sol:fundme",
        "label": "datafeed",
        "offset": 0,
        "slot": "2",
        "type": "t_contract(AggregatorV3Interface)45"
      }
    ],
    "types": {
      "t_address": {
        "encoding": "inplace",
        "label": "address",
        "numberOfBytes": "20"
      },
      "t_array(t_address)dyn_storage": {
        "base": "t_address",
        "encoding": "dynamic_array",
        "label": "address[]",
        "numberOfBytes": "32"
      },
      "t_contract(AggregatorV3Interface)45": {
        "encoding": "inplace",
        "label": "contract AggregatorV3Interface",
        "numberOfBytes": "20"
      },
      "t_uint256": {
        "encoding": "inplace",
        "label": "uint256",
        "numberOfBytes": "32"
      }
    }
  }
}